{"abi":[{"type":"function","name":"getItem","inputs":[{"name":"registrationId","type":"uint256","internalType":"uint256"}],"outputs":[{"name":"","type":"tuple","internalType":"struct Recover.Item","components":[{"name":"registrationId","type":"uint256","internalType":"uint256"},{"name":"owner","type":"address","internalType":"address"},{"name":"status","type":"uint8","internalType":"enum Recover.Status"},{"name":"registeredAt","type":"uint40","internalType":"uint40"},{"name":"lastUpdated","type":"uint40","internalType":"uint40"},{"name":"itemHash","type":"bytes32","internalType":"bytes32"}]}],"stateMutability":"view"},{"type":"function","name":"markLost","inputs":[{"name":"registrationId","type":"uint256","internalType":"uint256"}],"outputs":[],"stateMutability":"nonpayable"},{"type":"function","name":"markRecovered","inputs":[{"name":"registrationId","type":"uint256","internalType":"uint256"}],"outputs":[],"stateMutability":"nonpayable"},{"type":"function","name":"registerItem","inputs":[{"name":"itemHash","type":"bytes32","internalType":"bytes32"}],"outputs":[{"name":"","type":"uint256","internalType":"uint256"}],"stateMutability":"nonpayable"},{"type":"function","name":"verifyItem","inputs":[{"name":"registrationId","type":"uint256","internalType":"uint256"}],"outputs":[{"name":"","type":"tuple","internalType":"struct Recover.Item","components":[{"name":"registrationId","type":"uint256","internalType":"uint256"},{"name":"owner","type":"address","internalType":"address"},{"name":"status","type":"uint8","internalType":"enum Recover.Status"},{"name":"registeredAt","type":"uint40","internalType":"uint40"},{"name":"lastUpdated","type":"uint40","internalType":"uint40"},{"name":"itemHash","type":"bytes32","internalType":"bytes32"}]}],"stateMutability":"view"},{"type":"event","name":"ItemMarkedLost","inputs":[{"name":"registrationId","type":"uint256","indexed":true,"internalType":"uint256"},{"name":"timestamp","type":"uint256","indexed":false,"internalType":"uint256"}],"anonymous":false},{"type":"event","name":"ItemRecovered","inputs":[{"name":"registrationId","type":"uint256","indexed":true,"internalType":"uint256"},{"name":"timestamp","type":"uint256","indexed":false,"internalType":"uint256"}],"anonymous":false},{"type":"event","name":"ItemRegistered","inputs":[{"name":"registrationId","type":"uint256","indexed":true,"internalType":"uint256"},{"name":"owner","type":"address","indexed":true,"internalType":"address"},{"name":"itemHash","type":"bytes32","indexed":false,"internalType":"bytes32"},{"name":"timestamp","type":"uint256","indexed":false,"internalType":"uint256"}],"anonymous":false},{"type":"error","name":"InvalidItemHash","inputs":[]},{"type":"error","name":"InvalidStatusTransition","inputs":[{"name":"registrationId","type":"uint256","internalType":"uint256"},{"name":"currentStatus","type":"uint8","internalType":"enum Recover.Status"},{"name":"targetStatus","type":"uint8","internalType":"enum Recover.Status"}]},{"type":"error","name":"ItemNotFound","inputs":[{"name":"registrationId","type":"uint256","internalType":"uint256"}]},{"type":"error","name":"NotItemOwner","inputs":[{"name":"registrationId","type":"uint256","internalType":"uint256"},{"name":"caller","type":"address","internalType":"address"}]}],"bytecode":{"object":"0x60806040526001600055348015601457600080fd5b50610714806100246000396000f3fe608060405234801561001057600080fd5b50600436106100565760003560e01c8062bd04741461005b5780633129e7731461005b5780634458b231146100845780637870abdf14610099578063d66faf9a146100ba575b600080fd5b61006e6100693660046105dc565b6100cd565b60405161007b919061062d565b60405180910390f35b6100976100923660046105dc565b6101d3565b005b6100ac6100a73660046105dc565b61031e565b60405190815260200161007b565b6100976100c83660046105dc565b610496565b6040805160c081018252600080825260208201819052918101829052606081018290526080810182905260a081019190915281158061010e57506000548210155b1561013457604051631910c89760e01b8152600481018390526024015b60405180910390fd5b600082815260016020818152604092839020835160c08101855281548152928101546001600160a01b038116928401929092529192830190600160a01b900460ff166002811115610187576101876105f5565b6002811115610198576101986105f5565b8152600182015464ffffffffff600160a81b820481166020840152600160d01b90910416604082015260029091015460609091015292915050565b808015806101e357506000548110155b1561020457604051631910c89760e01b81526004810182905260240161012b565b600081815260016020819052604090912001546001600160a01b031633146102485760405163157dc33d60e21b81526004810182905233602482015260440161012b565b6000828152600160208190526040909120906001820154600160a01b900460ff16600281111561027a5761027a6105f5565b036102ab5760018181015460405163daa19ee160e01b815261012b928692600160a01b900460ff169160040161068e565b60018101805464ffffffffff42908116600160d01b81026affffffffff0000000000ff60a01b1990931692909217600160a01b1790925560405190815284907f2ab650ebb95dc59b7ba2c886fff8fc1e7964b319f7d5d715aabb25885dacf9f7906020015b60405180910390a250505050565b60008161033e5760405163af4547f560e01b815260040160405180910390fd5b600080546040805160c0810182528281523360208201529192429291820190815264ffffffffff8316602080830182905260408084019290925260609092018790526000858152600180845290829020845181559284015190830180546001600160a01b039092166001600160a01b0319831681178255928501519290916001600160a81b03191617600160a01b8360028111156103de576103de6105f5565b0217905550606082015160018083018054608086015164ffffffffff908116600160d01b0264ffffffffff60d01b1991909516600160a81b021669ffffffffffffffffffff60a81b19909116179290921790915560a0909201516002909101556104499083906106b7565b6000556040805185815264ffffffffff83166020820152339184917fdd907dba24e3de03a49e80283d74540bcd72a7269956ca60f4455c53e32ecaf3910160405180910390a35092915050565b808015806104a657506000548110155b156104c757604051631910c89760e01b81526004810182905260240161012b565b600081815260016020819052604090912001546001600160a01b0316331461050b5760405163157dc33d60e21b81526004810182905233602482015260440161012b565b6000828152600160208190526040909120906001820154600160a01b900460ff16600281111561053d5761053d6105f5565b1461057357828160010160149054906101000a900460ff16600260405163daa19ee160e01b815260040161012b9392919061068e565b60018101805464ffffffffff42908116600160d01b81026affffffffff0000000000ff60a01b1990931692909217600160a11b1790925560405190815284907fc1d816507461d7c7b01adc0b74aeea58bb8176dd1f6b13315a83c69917024f9190602001610310565b6000602082840312156105ee57600080fd5b5035919050565b634e487b7160e01b600052602160045260246000fd5b6003811061062957634e487b7160e01b600052602160045260246000fd5b9052565b815181526020808301516001600160a01b03169082015260408083015160c083019161065b9084018261060b565b5064ffffffffff606084015116606083015264ffffffffff608084015116608083015260a083015160a083015292915050565b838152606081016106a2602083018561060b565b6106af604083018461060b565b949350505050565b808201808211156106d857634e487b7160e01b600052601160045260246000fd5b9291505056fea26469706673582212202c72acae1e7f66ed4204965a3bb7a4c4261df50382d8ca72a61e2d63623881e364736f6c634300081d0033","linkReferences":{}},"methodIdentifiers":{"getItem(uint256)":"3129e773","markLost(uint256)":"4458b231","markRecovered(uint256)":"d66faf9a","registerItem(bytes32)":"7870abdf","verifyItem(uint256)":"00bd0474"},"id":19}